:020000040800F2
:10000000F0130020BD010008912C000849290008C8
:100010008D2C00088D27000883390008000000009F
:10002000000000000000000000000000CF010008F8
:100030009127000800000000612F000869360008C1
:10004000D7010008D7010008D7010008D701000830
:10005000D7010008D7010008D7010008D701000820
:10006000D7010008D7010008D7010008D701000810
:10007000D7010008D7010008D7010008D701000800
:10008000D7010008D7010008D7010008D7010008F0
:10009000D7010008D7010008D7010008D7010008E0
:1000A000D7010008D7010008D7010008D7010008D0
:1000B000D7010008D7010008D7010008D7010008C0
:1000C000D7010008D7010008D7010008D7010008B0
:1000D000D7010008CD360008D7010008D701000875
:1000E000D7010008D7010008D701000800F002F886
:1000F00000F054F80AA090E8000C82448344AAF16E
:100100000107DA4501D100F049F8AFF2090EBAE86B
:100110000F0013F0010F18BFFB1A43F0010318473B
:10012000C85D0000E85D0000103A24BF78C878C1BF
:10013000FAD8520724BF30C830C144BF04680C60ED
:10014000704700000023002400250026103A28BF35
:1001500078C1FBD8520728BF30C148BF0B60704739
:10016000672905F00280782900F06381002070473C
:100170001FB59DE8030000F0A7FB01F017F904008C
:100180000020002104F026FA401C606000200021BD
:1001900004F036FAE0601FBD10B510BD01F0EAFBB7
:1001A0001146FFF7E5FF03F067FE01F03DFE03B4E3
:1001B000FFF7F2FF03BC01F06DFE00000948804725
:1001C00009480047FEE7FEE7FEE7FEE7FEE7FEE739
:1001D000FEE7FEE7FEE7FEE704480549054A064B51
:1001E000704700006D360008ED000008F0000020A8
:1001F000F0130020F00F0020F00F002070B506462D
:1002000000F046FB056806F10B0020F00704B4423D
:100210009CBF002070BD2B466A68BAB11068A0422E
:1002200010D304F1080188423CBF5068586007D3DE
:100230005168101941601168091B01605860146011
:10024000101D70BD13465268002AE7D1214628468A
:1002500000F026FB0028DED170BD70B50446051FF6
:1002600000F016FB0068002C14BF446870BD002C21
:1002700018BFAC423CBF20466468F8D301680A1836
:10028000AA4218BF456003D12A680546114401609F
:1002900028684119A1421CBF6C6070BD616869602B
:1002A00021680844286070BD70B50D460646041FDD
:1002B00000F0EEFAD0F800C0C5B1E6B105F10B00D0
:1002C00020F00703AB423CBF002070BD206898427D
:1002D00038BFDCF8042013D3C11A08292FD3E01843
:1002E00040F8041B2360FFF7B8FF28E03046FFF713
:1002F000B4FF002070BD2846BDE87040FFF77EBF08
:10030000002A18BFA2423CBF94465268F8D3011994
:10031000914216D111680844984212D3C11A082993
:100320003CBF2060506808D35168E01841602168E4
:1003300012681144C91A01602360CCF80400201D22
:1003400070BD181FFFF75AFF050007D021680A1F6C
:10035000211D00F0F7F9201DFFF77FFF284670BD33
:100360000FB41CB5084B06AA7B446946009005985B
:1003700000F04DFD04460020694600F05BFD20467C
:100380001CBC5DF814FB0000C90A000070B50446EF
:1003900085690068C10601D5302600E02026C00727
:1003A00007D070BDD4E9012130469047206A401C37
:1003B00020626D1EF6D570BD70B504468569007863
:1003C000C00707D170BDD4E9012120209047206AE1
:1003D000401C20626D1EF6D570BD0000F0B40D46C5
:1003E0000188090502D5214C7C4402E01F4C7C4465
:1003F0000E34002100F1240608E002F00F07120974
:10040000E75D42EA03721B097754491C52EA03076D
:10041000F3D102780023120704D5702D06D009B15C
:10042000022311342246F0BC00F084BA01231034B8
:10043000F8E770B504460D4621461068AFF300801A
:10044000024629462046BDE870400023C6E7D21D7B
:1004500022F00703D3E90023C0E70368126843F0E2
:10046000200303600823C3610023B7E72E5A00006E
:100470002DE9F05F894604464FF0000ADFF874B1B9
:10048000FB44C0F820A02046E1688847002874D0CB
:10049000252806D0D4E901219047206A401C20621B
:1004A000F1E700265F462046E16888472028054698
:1004B00007DB312D05D2781910F8200C08B106435E
:1004C000F1E7B00701D526F00406C4F81CA0002708
:1004D000C4F818A02A2D09D0284603F0E8FA38B34A
:1004E00004EB8708303DC8F8185019E059F8041B90
:1004F000204604EB87029161E1688847012F054699
:1005000018D1E069002820DA26F020061DE0D8F88E
:10051000180000EB800005EB40003038C8F81800E8
:100520002046E1688847054603F0C1FA0028EED16D
:10053000012F0AD02E2D08D12046E16888477F1C64
:100540000546022F46F02006C4DBA069002803DA26
:10055000404246F00106A061F00701D026F01006E7
:100560006C2D0BD0682D09D04C2D39D06A2D35D08B
:10057000742D35D07A2D33D016E038E0E1682F465F
:1005800020468847B842054609D16C2F26D04FF443
:100590008060E168064320468847054604E06C2FEA
:1005A0001AD04FF4807006430DB3A5F1410019280D
:1005B00002D8203546F400664A4629462046266081
:1005C0004E46FFF7CDFD80B101280BD0F61D26F079
:1005D000070000F1080956E74020E4E78020D8E74B
:1005E0000020D6E706F104094DE7284652E7206AC5
:1005F000BDE8F09FBE5900000FB400B58DB010A942
:10060000099000910B904FF0FF300A9000200C9061
:10061000064878440690064878446A4607900F9941
:1006200009A800F08FFE0DB05DF814FB4F0D00001F
:10063000670D000040EA0103024630B59B0710D168
:100640004FF0013400E008C208C91D1B9D4315EAA4
:10065000C41FF8D013F0FF0102F8011B0DD01B0AD4
:10066000F8E711F8013B002B02F8013B05D011F827
:10067000013B002B02F8013BF3D130BD10B5431C08
:1006800002E010F8011B71B18107FAD14FF001327D
:1006900002C88C1A8C4314EAC211F9D0C01A0A0697
:1006A00003D0C01E10BDC01A10BD0A0401D0801EA8
:1006B00010BD0902FCD0401E10BD032A40F230805C
:1006C00010F0030C00F0158011F8013BBCF1020F93
:1006D000624498BF11F801CB00F8013B38BF11F814
:1006E000013BA2F1040298BF00F801CB38BF00F82B
:1006F000013B11F0030300F02580083AC0F00880A8
:1007000051F8043B083A51F804CBA0E80810F5E78B
:10071000121D5CBF51F8043B40F8043BAFF300806E
:10072000D20724BF11F8013B11F801CB48BF11F8E3
:10073000012B24BF00F8013B00F801CB48BF00F8B3
:10074000012B704710B5203AC0F00B80B1E818506B
:10075000203AA0E81850B1E81850A0E81850BFF4AB
:10076000F5AF5FEA027C24BFB1E81850A0E818504A
:1007700044BF18C918C0BDE810405FEA827C24BF9E
:1007800051F8043B40F8043B08BF7047D20728BF2C
:1007900031F8023B48BF11F8012B28BF20F8023B7B
:1007A00048BF00F8012B70474FF0000200B5134618
:1007B00094469646203922BFA0E80C50A0E80C5081
:1007C000B1F12001BFF4F7AF090728BFA0E80C5032
:1007D00048BF0CC05DF804EB890028BF40F8042B2B
:1007E00008BF704748BF20F8022B11F0804F18BF98
:1007F00000F8012B704700004FF0013C50F8042B2B
:1008000051F8043B9A4221D1A2EB0C03934313EA23
:10081000CC1317D150F8042B51F8043B9A4215D150
:10082000A2EB0C03934313EACC130BD150F8042B27
:1008300051F8043B9A4209D1A2EB0C03934313EA0B
:10084000CC13DBD04FF00000704700BFD01A01BAC4
:10085000B1FA81F101F0180122FA01F0CB40C1F1A7
:100860002001DBB2C0B2C01A2CFA01F3D11A9143B5
:1008700011EAC311E6D17047704770477047000016
:1008800010B500F093FD001D10BD00BF493D0000F4
:1008900000487047980000207047704770477047C5
:1008A00038B504460A4600206946AFF300800028A8
:1008B00008BF38BD02460099204600F07FFD0120A8
:1008C00038BD012001F04EB8F8B5AFF30080054601
:1008D00000200C46102000BF0646A819A0420DD9E2
:1008E000324669460020AFF30080070008BF01F0E0
:1008F00039F80098A04218BF0546C419FFF7C8FF91
:1009000005600746F01D20F007004619284600F054
:100910000AF8B44208BFF8BDA21B31463868BDE8EA
:10092000F84000F04BBD00210160C0E901107047A4
:10093000102070472DE9F0470D469946924604462F
:1009400000F124080168880604D5E06921F010014F
:10095000216000E00120A84201DD471B00E00027E4
:10096000A1697A1902EB0900081AA0612078C00673
:1009700002D42046FFF70AFD002608E0D4E9012151
:100980001AF806009047206A401C761C20624E45EB
:10099000F4DB2078C0060AD52046FFF7F7FC06E016
:1009A000D4E9012130209047206A401C2062381E83
:1009B000A7F10107F4DC07E0D4E9012118F80500EC
:1009C0009047206A401C2062281EA5F10105F3DC37
:1009D0002046FFF7F1FC2078000602D50220BDE892
:1009E000F0870120FBE770472DE9FF4F0C461E46BC
:1009F0004FF0FF378BB0D2E90001DDF860800A903C
:100A00008A46C1F30A5505B93D46002108464FF014
:100A10000000BAF1000F00F4400005DA00EB80009E
:100A20004FF4400101EA50004FEA9059B9F1010F2B
:100A300000DDB9460A9850EA4A000ED044F610503C
:100A4000A5F2FF3545432F14B8F1000F1ED07542B3
:100A5000291E1EDDC9F100021CE0B8F1010F4FF0A4
:100A6000000001D0302103E0F24305E02154401C96
:100A7000B042FBDB30460022002121540B99C1F823
:100A80000880C1E900200FB0BDE8F08FBD1B6D1CD0
:100A9000DEE74A4600DA694206A800F0F1FE06AB3E
:100AA00093E8070003AB83E8070050460A9901F07A
:100AB00038FA8DE80700A0F500501F380090039821
:100AC000002D0ADD42F21F014A460844002303A913
:100AD0000390684601F0E4FC09E0A0F500504A46A6
:100AE0001F38002303A90390684601F003FD8DE839
:100AF00007000004000C03D04FF0FF30410800E075
:100B00001046B8F1000F03D00022009215461EE0F7
:100B1000751E05D400F06CFC303262556D1EF9D59F
:100B2000B3460122084302D000227F1C04E0207853
:100B3000302801D100227F1E002A099784D01DE0B1
:100B4000112D07DA00F054FC303262556D1C50EA6A
:100B50000102F5D1084302D00098C8B10EE000218F
:100B6000681E05E0235C625C63542254401E491CED
:100B70008142F7DBAB46A81B401E0990002004F819
:100B80000B000B98099AC0F80880C0E9002B7AE79F
:100B900011264FF0000857E72DE9F04F884604462C
:100BA000D21D22F0070191B0D1E90001CDE90A017F
:100BB00002F0E9FE02460B98C00F01D02D2007E09D
:100BC0002068810701D52B2002E0202101EAC00026
:100BD000032A099001D0072A05DB03464146204637
:100BE00000F054FC0BE12078800601D5E06900E0BC
:100BF0000620B8F1650F814606D0B8F1660F18D00F
:100C0000B8F1670F70D131E00020B9F1110F0090F9
:100C100001DB112301E009F101030AAA01A90CA8D3
:100C2000FFF7E2FEDDE90C70002609F101058346BD
:100C300047E001204B4600904FF000470AAA01A967
:100C40000CA8FFF7D1FEDDE90DB00C995D4600263A
:100C500010B909F101000D18B9EB050003D4C0F17A
:100C6000FF3609F10105A5EB09002BE0B9F1010FF1
:100C700001DA4FF001090020B9F1110F0090484648
:100C800001DD112300E003460AAA01A90CA8FFF721
:100C9000ABFEDDE90C704D46002683462078000748
:100CA0000AD4AB4500DA5D4601A8012D04DD4119E7
:100CB00011F8011C302907D04F4502DA17F1040F53
:100CC00004DA012082460FE06D1EEEE7002F02DC01
:100CD000ED1B3E4403E0781CA84200DD7D1CB81BE0
:100CE00000F1010A4FF000472078000703D4AA451D
:100CF00001DB4FF0FF3A0021B7F1004F0DF143083F
:100D00008DF8431024D002202B23002F01DA7F42DC
:100D10002D230A21021EA0F1010000DC5FB197FB28
:100D2000F1FC97FBF1F201FB1C7C17460CF1300C37
:100D300008F801CDEEE7A8F101000370218809054C
:100D400001D5452100E06521A0F1010800F8011C52
:100D500009980FA9A1EB0807FF1D00B10120411957
:100D600001EBEA70A1693844081A401EA06120789E
:100D7000C00602D42046FFF709FB099828B1D4E940
:100D800001219047206A401C20622078C00622D5AD
:100D90002046FFF7FBFA1EE0002E04DBB34502DD20
:100DA00001A8805D00E03020D4E901219047206A4D
:100DB000401C2062761CAAF101005FEA000A0AD1F9
:100DC00000F0F4FAC0680168405CD4E90121904762
:100DD000206A401C2062281EA5F10105DCDC07E02A
:100DE000D4E9012118F8010B9047206A401C2062C9
:100DF000381EA7F10107F3DC2046FFF7DDFA0320D8
:100E000011B041E601694A1C02610878704700B5DB
:100E10008FB0CDE901310021059105497944CDE933
:100E2000031011466846FFF723FB0FB000BD00001A
:100E3000E5FFFFFF0A6802F8010B0A607047000037
:100E40002DE9FF4F06468BB00878FF2806D0491CD5
:100E50002D2805D000244FF0000908E000200CE008
:100E60000124F8E709EB8903491C00EB43090878E2
:100E7000FF28F7D114B1C9F1000081461078002590
:100E80002C46AA4629462D2801D02B2804D1521CD5
:100E90002D2813D0002082468B461078FF280FD0D3
:100EA0004FF0000C0A21521CA5FB017804FB0181C4
:100EB00005FB0C11C5194BEB0104EEE70120EAE735
:100EC000002108464FF00000BAF1000F02D000EBFD
:100ED00080004008C0F38157012F01DD4FF0FF373C
:100EE0000E9955EA040009EB01080BD04FF00209F6
:100EF00018F5FA7F16DA4FEACA70002F706008DD25
:100F0000012007E04FEACA70C6E900B00FB0BDE8A3
:100F1000F08F0020306000F04DFAC0F800901821EA
:100F2000084616E0B8F5FA7F18DD002F02DAF74818
:100F3000784401E0F6487844D0E90010C6E9001092
:100F400040EACA70706000F035FAC0F800901421D1
:100F500008460FB0BDE8F04F04F004B90021084680
:100F60004FF00000B8F10001099002DAC7F1000269
:100F700000E03A4601DAC8F1000106A800F080FC62
:100F800006AB93E8070003AB83E8070044F23E009A
:100F90005BEA04010090584604D144F21E012C463D
:100FA0005D460091210C0904014306D100992404F7
:100FB00044EA15442D041039009104F07F410143A7
:100FC00006D10099240244EA15642D0208390091E3
:100FD00004F07041014306D10099240144EA1574DC
:100FE0002D01091F009104F04041014306D10099F1
:100FF000A40044EA9574AD00891E009104F00041FC
:10100000084304D100986D196441401E00904FF0D0
:1010100001033A466846B8F1000FCDE9014503A93E
:1010200002DD01F07CFA01E001F04FFABAF1000FA5
:1010300004460D4601D084F00044002108464FF0DC
:101040000000099940F2FF77484010F00C0F07D1DB
:1010500024F00040284303D0C4F30A50B84212D110
:1010600000F0A8F9C0F80090C4F30A50B8420AD1C1
:10107000A8487844D0E90010C6E9001004F0004107
:101080000843706042E7C6E900543FE72DE9FF4F8F
:101090001F464FF0000A4FF0FF38454691B0D7E9A0
:1010A0000146CDF83CA000F081F9C0680168405CC1
:1010B0001090B96912986D1C8847396A8146884733
:1010C0000028F6D1B9F1FF3F0AD0002E24F4D064F5
:1010D00011DDB9F12B0F08D0B9F12D0F0BD102E0C2
:1010E000404615B013E744F48064B96912986D1C4A
:1010F0008847761E8146600504A901D52D2000E0B1
:101100002B20002E01F1010B0DF130088DF810009D
:101110003FDDB9F1690F08D0B9F1490F05D0B9F138
:101120006E0F02D0B9F14E0F1CD13B4601A80095BD
:1011300080E85002DDE912126FF0020004F07BF843
:10114000C11CCED10EE0B96912986D1C884781464A
:101150001398761E44F4007405600F98401C002E0E
:101160000F9016DDB9F1300FEDD0B9F1780F02D044
:10117000B9F1580F0DD10F9801280AD13B46CDE99E
:101180000054DDE91212001F029604F052F8C11C4F
:10119000A7D1109989453ED144F0800406E0139907
:1011A000681CAAF1010A44F400740860B9696D1C56
:1011B0001298761E884730288146F0D02BE010998F
:1011C000894505D1200603D4761E44F0800418E03A
:1011D000484602F06CFC08B3761E0DF123018B45E6
:1011E00044F4007408D2A9F130000BF8010B20067A
:1011F00007D5AAF1010003E0200602D40AF101009C
:101200008246A00502D51399681C0860B969129836
:101210006D1C88478146002ED1DC53E0002E51DD45
:10122000B9F1650F02D0B9F1450F4BD1A00549D5F1
:10123000B9696D1C1298761E24F440748847002EFC
:1012400081460CDD2B2804D0B9F12D0F07D144F4D1
:101250008074B96912986D1C8847761E8146E00536
:1012600001D52D2100E02B2108F8011BCDF80080CD
:1012700021E0761E0DF13901884544F400740CD24A
:10128000A9F1300010F0FF0088F8000002D10099A9
:10129000884509D908F1010806E0E00501D51E4896
:1012A00001E042F20F708246B96912986D1C8847BE
:1012B000814613980560002E04DD484602F0F7FBD6
:1012C0000028D6D1F96912988847FF2053468BF839
:1012D000000088F8000000200A900B9004AA0CA9D6
:1012E0000AA8FFF7ADFDA00502D46FF00100F8E6F3
:1012F00014F0240F12D0E0071CD13868DDE90A127F
:10130000031D3B600068C0E9001213E0DC4F0000E1
:10131000CE4F0000924E0000F1D8FFFF0AA96846A8
:1013200002F054FBE00705D13868009A011D3960CE
:10133000006802602846D4E6026811441378016010
:1013400018467047D1600549794451610449794490
:10135000116200211161114600F0D8B8EDFFFFFFC6
:1013600029010000426842B1016811F8013B23B134
:10137000521EC0E90012184670470121C160881E44
:10138000704742685AB1C368016843B983688B42A9
:1013900005D0491E521CC0E90012002070474FF0D2
:1013A000FF307047004870479000002000487047A9
:1013B000B0000020004870479000002003464068BD
:1013C0008C46002818BF88423CBF03464068F8D3CB
:1013D00018681844884207D00CF1030020F0070079
:1013E000001D411A521A0146081D0A60FEF735BF5A
:1013F00030B5B0F10A024FEA900E71F100034EEAE7
:10140000817EB0EB0E0061EB91014FEA101E4EEAB7
:10141000017E10EB0E0041EB11114FEA102E4EEA47
:10142000016E10EB0E0041EB11214FEA104E4EEA17
:10143000014E10EB0E0041EB1141401841F100014B
:101440004FEAD00040EA41704FEAD10110EB80052D
:101450004FEA810444EA907444EB01046D1944EBB3
:101460000404521BA3414FF0000348BF0A3200D5C9
:1014700030BD401C41F1000130BD10B50446FFF7FE
:10148000FFF90068005D00F0010010BD2DE9F0419A
:101490001F46044603260168072A01F4006004DBA6
:1014A00008B116A505E016A503E008B115A500E0F2
:1014B00015A521F010002060A069C01EA0610FB129
:1014C000401EA0612046FEF761FF4FB1D4E9012123
:1014D00038469047206A401C2062C01C206206E00B
:1014E000206AFAE7D4E9012115F8010B9047761E2E
:1014F000F8D22046FEF760FFBDE8F0814E414E0075
:101500006E616E00494E4600696E66002DE9F34F2C
:101510004FF0000A0C4656468DB001200C9001F1A8
:101520000C000B9062690B9801219047051E2DD08D
:10153000252D2CD0216A8847C0B162690B98012102
:101540009047216A88470028F7D16269411E0B98AD
:10155000904700E0761CA1690D988847216A88476A
:101560000028F7D1E1690D988847DBE7A1690D985C
:101570008847A842074601D1761CD3E7E1690D9858
:1015800088477F1C02D1BAF1000F6FD06CE162690D
:101590000B9800273D46394690472A2804D16269B6
:1015A0000B98012190470125DFF8D08262690B98E2
:1015B00001219047A0F130010A290AD24745E5DC14
:1015C00007EB870100EB4107303FDFD445F0100502
:1015D000ECE7E90601D46FF000476C280AD04C28EC
:1015E00014D0682815D06A280DD074281CD07A2809
:1015F0001AD01DE062690B98012190476C2802D037
:1016000045F0040514E045F002050DE045F0200525
:101610000AE062690B9801219047682802D045F0E2
:10162000080505E045F4006562690B9801219047C3
:10163000C4E9015765283DD019DC58287AD00CDC64
:10164000452837D004DC252826D041289ED131E01A
:1016500046282FD0472899D12CE05B2877D06128E5
:1016600028D063287CD0642823D15AE0F7E06F2883
:1016700048D008DC66281DD067281BD0692821D0F7
:101680006E2816D127E0702845D0732868D07528B9
:1016900047D078280DD14DE0A1690D9888472528BD
:1016A00005463FF469AFE1690D9888476D1C3FF42A
:1016B0006AAFD9E00D9923466A466FF0010003F046
:1016C000B6FDC6E045F0400023464FF000026060E2
:1016D000A80736D43EE0E8077FF447AF2068011D35
:1016E00021600068290501D506701BE7290701D58F
:1016F000068017E7A90703D5F117C0E9006111E7D4
:1017000006600FE745F0400023464FF00802606096
:10171000A80716D41EE040F60E0125EA010060601D
:1017200016E045F0400023464FF00A026060A8072B
:1017300007D40FE045F040006060A80708D52346B5
:1017400010220D996FF00100AFF3008081E007E0F7
:10175000102223460D996FF00100AFF3008078E06E
:101760004FF0000963284F46C8464B46CB4602D08F
:101770005B2807D039E02079C00601D40120A060A1
:10178000012732E06269D4F80CB00B980121904730
:101790005E2807D14FF0010949466269D4F80CB0C0
:1017A0000B989047216939B900210A4603AB43F8E9
:1017B0002120491C0829FADBD8B3216949B308F173
:1017C000010862690B98012190475D28F4D1B9F1B5
:1017D000000F09D0002003A951F82020D24341F87E
:1017E0002020401C0828F7DB03AB20690028207963
:1017F0004FEA40701ED05B462246CDF80080CDE90E
:1018000001970D9900286FF0010020DAAFF30080F6
:101810001FE0C11703AA00EBD1614B1121F01F019A
:1018200002EB8302411A13680120884003431360CE
:10183000C7E719E00D99224600286FF001000097D4
:1018400002DAAFF3008004E0AFF3008001E0AFF311
:10185000008000280ADA401C06D10C9820B14FF015
:10186000FF300FB0BDE8F08F5046FAE7E90701D12D
:101870000AF1010A064400200C9053E6CCCCCC0CB3
:101880002DE9F047814616468AB0354878440DC8A0
:101890008DE80D0032487844801C03AC0DC884E804
:1018A0000D0041F69B300844372190FBF1F290FB8C
:1018B000F1F5A5F1800501FB12041B3C02D5644241
:1018C000012000E00020DFF898A080460027FA44BD
:1018D000AAF1BE0A0EE0E0070AD03246684607EBDE
:1018E000470101230AEB810100F004FE8DE80700A7
:1018F00064107F1C002CEED1194F7F44AE3F19E0DD
:10190000E80715D007EB04100DF1180A90E80E0057
:101910008AE80E00C068F04201D19819089032465A
:10192000012306A903A800F0E5FD03AB83E8070047
:101930006D10641C002DE3D14FF00103324669465F
:10194000B8F1000F03A802D000F0AAFD01E000F0FA
:10195000D1FDC9E90001C9F808200AB0BDE8F08747
:101960004046000010B500F06DFABDE8104000F0F0
:1019700064BA70477546FFF715FDAE460500694627
:10198000534620F00700854618B020B5FEF724FC2A
:10199000BDE820404FF000064FF000074FF0000870
:1019A0004FF0000B21F00701AC46ACE8C009ACE8F1
:1019B000C009ACE8C009ACE8C0098D46704710B555
:1019C000FFF7F8FC006810BD10B50446FFF7F2FC05
:1019D000046010BD2DE9FF4F1F464FF03C0987B052
:1019E0004FF00042DDE9141001F10108DDF858A0C4
:1019F00002EA4050039000200590834605460446C5
:101A00000490B969461E08988847AAF1010A029015
:101A1000BAF1000F3BDD02982E2815D0102100F0FE
:101A200052FA00282EDB4FF0010B0599014317D025
:101A3000B9F1000F0BDB4A46C11700F031FA05433C
:101A40000C43A9F1040905E0012004900BE008B162
:101A500045F0010501200590049820B9361D02E0EB
:101A6000049800B1361FB969089808F10108884741
:101A7000BBF1000FAAF1010A0290C9D00999C1F87F
:101A80000080C5E70298702808D0502806D0F96970
:101A900008988847BBF1000F14D04FE00020029057
:101AA0000120BBF1000F049009D0B969089808F132
:101AB00001088847AAF10109B9F1000F07DCF969AB
:101AC000089888476FF001000BB0BDE8F08F2B2815
:101AD00004D02D280CD14FF0FF300490B96908983C
:101AE00008F101088847A9F10109B9F1000FE6DD05
:101AF000411CE4D00A2100F0E6F90028DFDB02995E
:101B000008F1010801EB810100EB41000290B96985
:101B1000089888470A2100F0D6F9099AA9F1010925
:101B2000B9F1000FC2F8008001DD0028E7DAF96999
:101B3000089888470499029800FB016655EA04005A
:101B400004D004F04041090002D006E0039898E078
:101B5000A40044EA9574AD00B61E04F000410800EC
:101B600002D16D196441761E159810F0240F03D030
:101B70004FF00B095C4803E04FF028096FF07D003F
:101B80008246564507DAAAEB06018944B9F1410FAE
:101B900001DD4FF0410901200021A9F1010200F00F
:101BA0007FF9024628400B462140084301D001211D
:101BB00000E00021501E029143F1FF3128402140F6
:101BC000084301D0012000E000200299834651EA39
:101BD0000B014FD0002108464FF00000039900F49C
:101BE000400039B100EB80004FF4400100EBD070B1
:101BF00001EA60008015012802DD4FF0FF3000E0AF
:101C000013D0401C36D0029860B3BBF1000F0CD14A
:101C10004A460120002100F043F9284021400843B2
:101C200001D0012000E00020E0B101204A4600215F
:101C300000F036F9034640190A4661412D1A8C41DD
:101C400011D3B9F1400F09DD159810F0240F02D01F
:101C5000AAF1340603E0AAF1170600E0761C00257D
:101C60004FF0004406E05B1E42F1FF3220EA03051C
:101C700021EA0204CAF10100B04206DA1B490398C6
:101C800008430190002000900EE0039AC4F3D32192
:101C9000E80A0A43164940EA44500A433146CDE96E
:101CA0000002684601F0F8FE159810F0240F0BD0E2
:101CB0001598C00715D13868DDE90012031D3B6097
:101CC0000068C0E900120CE002A8694601F07EFE3F
:101CD0001598C00705D13868029A011D396000685F
:101CE00002604046F0E6000002FCFFFF0000F07FCB
:101CF0000000F03F2DE9FF4F92461D4685B04FF0A2
:101D00000041DDE9124BDDE914727F1E01EA4B5000
:101D1000414940F0FF4940EA0108002122F020003B
:101D20004928049102D04E2828D04CE03BA001263F
:101D300007C88DE80700A9690698641C88477F1EBC
:101D4000014606D41DF8060018B121F02001814299
:101D50000BD0E96906988847032E34D0082E32D07C
:101D60006FF0010009B0BDE8F08F761C032E01D0A2
:101D7000082EE0D1601CCAF80000DCE7A9690698CB
:101D8000641C88477F1E2AD420F02000412826D1D9
:101D9000A9690698641C88477F1E20D420F0200083
:101DA0004E281CD1A9690698641C88477F1E48F4F8
:101DB000002849F48009CAF8004001D4282806D038
:101DC000E969069888475FEACB7012D022E0A969DA
:101DD0000698641C88477F1E01D4002803DAE9694D
:101DE00006988847BCE72928F1D1641CCAF800404E
:101DF000E9E71BF0240F07D028680499031D2B6026
:101E00000068C0E9001805E02868021D2A60006823
:101E1000C0F800902046A5E70000F07F494E4649F3
:101E20004E4954590000000010B50446AFF300803D
:101E30002046BDE81040FEF7BAB9002801D000F0F6
:101E400029B8704710B5012805D0002103A000F083
:101E500048F8012010BD09A1F8E700005349475296
:101E6000544D454D3A204F7574206F66206865616A
:101E700070206D656D6F7279000000003A20486532
:101E80006170206D656D6F727920636F727275700D
:101E90007465640001491820ABBEFEE7260002000D
:101EA000B2F120030AD5C2F1200301FA02F120FAAF
:101EB00003F300FA02F041EA0301704700FA03F16C
:101EC0004FF0000070473A2800D2303820F020024E
:101ED000412A01D3A2F13700884201D34FF0FF30ED
:101EE000704770B505460C460A2000E06D1C00F0F6
:101EF00011F835B128780028F8D102E0641C00F010
:101F000009F814B120780028F8D1BDE870400A2003
:101F1000AFF3008008B569468DF800000320ABBE22
:101F200008BD5FEA400C08BF91F0000F4FEA8C2318
:101F30004FEAC12243EA51514FEA1C5018BF00F545
:101F4000F0404FEA300018BF41F000415FEA6C5C9E
:101F500000F02980BCF1FF3F08BF40F0804070478F
:101F6000130C06BF12044FF0100C4FF0000C130EB0
:101F700004BF12020CF1080C130F04BF12010CF184
:101F8000040C930F04BF92000CF1020CD30F04BF9A
:101F900052000CF1010C11464FF00002A0F11F009D
:101FA000A0EB0C00704711F0004F08BF704731F0F4
:101FB00000413FF4D5AF0B0C06BF09044FF0100CE5
:101FC0004FF0000C0B0E04BF09020CF1080C0B0FB4
:101FD00004BF09010CF1040C8B0F04BF89000CF144
:101FE000020CCB0F04BF49000CF1010CCCF1200313
:101FF000A0EB0C0022FA03F302FA0CF241EA03010F
:1020000000F10100704720F07F4C80EA030023F0CC
:102010007F47ACEB070303F57C5300F0004003F16E
:10202000FF032DE980494FEA154B09B44FEA1443E9
:1020300025EA0B4E24EA03480FF2042606EB132789
:1020400049083E785FEA320203FB0667C7F50007DE
:1020500007FB06F64FEA54374FEAD64606F102066A
:1020600007FB066CCCF1005C4FEA1C472CEA074CDE
:1020700007FB06F40CFB06F504EB15464FEA961633
:1020800034BF00204FF000404FEAD13706FB07FC79
:102090004FEA1C4C0CFB0BF7D21B03FB0CF761EB5C
:1020A00007010CFB0EF7B0EB074072EB17420CFB7D
:1020B00008F734BFA2EB0742B2EB074261EB1741CE
:1020C0004FEA0C444FEA910706FB07FC4FEA1C4C11
:1020D0000CFB0BF7B0EBC74072EB573203FB0CF76E
:1020E00034BFA2EBC742B2EBC74261EB57310CFBE6
:1020F0000EF7B0EBC70072EB57720CFB08F734BF5A
:10210000A2EBC702B2EBC70261EB5771039F4FEA24
:10211000816141EA921104EBCC044FEAD1374FEAD6
:10212000826206FB07FC42EA90124FEA80604FEAA7
:102130001C4C0CFB0BF7D21B03FB0CF761EB0701EC
:102140000CFB0EF7B0EB074072EB17420CFB08F7E5
:1021500034BFA2EB0742B2EB074261EB17414FEAF3
:102160008C554FEA910704EB9C2406FB07FC4FEAD1
:102170001C4C0CFB0BF7B0EBC74072EB573203FB68
:102180000CF734BFA2EBC742B2EBC74261EB573149
:102190000CFB0EF7B0EBC70072EB57720CFB08F7A5
:1021A00034BFA2EBC702B2EBC70261EB577115EB6C
:1021B0004C254FEA816141EA92114FEA82624FEA6F
:1021C000D13742EA901206FB07FC44F100044FEAC3
:1021D00080604FEA1C4C0CFB0BF7D21B03FB0CF787
:1021E00061EB07010CFB0EF7B0EB074072EB1742F7
:1021F0000CFB08F734BFA2EB0742B2EB074261EBDE
:10220000174115EB1C154FEA813141EA92414FEA23
:10221000823242EA90424FEA80304FEA0C7644F133
:10222000000448EA03434EEA0B484FF0000EB2EBBD
:10223000080C71EB030724BF624639464EEB0E0EC5
:102240004FF0000B0018524149414BEB0B0BB2EB26
:10225000080C71EB03077BF1000B24BF6246394683
:102260004EEB0E0E4FF0000B0018524149414BEB64
:102270000B0BB2EB080C71EB03077BF1000B24BFD7
:10228000624639464EEB0E0E51EA020718BF46F081
:10229000010616EB0E7655F1000254F1000103D54C
:1022A000BDE88901BDE80088BDE88901BDE80048B6
:1022B000B619524141EB0101A3F10103704780803F
:1022C0007F7E7D7C7B7A7978777676757473727190
:1022D00071706F6E6E6D6C6C6B6A6A696868676648
:1022E00066656464636362616160605F5F5E5E5DDA
:1022F0005D5C5C5B5B5A5A5959585857575656554E
:1023000055555454535352525251515050504F4FAF
:102310004F4E4E4D4D4D4C4C4C4B4B4B4A4A4A49FF
:102320004949484848474747474646464545454442
:1023300044444443434343424242424141410000FA
:1023400046EA0646A3F570534FEA164646EA425659
:102350004FEAD22242EA415210B54FEAD121A3F10D
:10236000010300F02FF820F0004000F1020C00F013
:10237000004701EB00501146BCF5006F40EA070032
:1023800000D210BDBAF1000F0AD01CB503B44FF053
:1023900004004FF004014FF000000FBCBDE81040F6
:1023A0004FF00001BBF1010FB9BF04484FF0FF31FE
:1023B0000348002140EA070010BD00BFFFFFEF7F88
:1023C0000000F07F002B9C4630D477002BD01CB54A
:1023D0004FEA370703B44FF010004FF01001BAF185
:1023E000000F06D0BCF1000FDCBF40F0080040F049
:1023F00008014FF000000FBCBDE810400BF1010BCD
:10240000BBF1010F08BF5FEA170722BF12F10102FB
:1024100011F101014FF0004143F1000300F00040D1
:1024200043EA00007047F9D35708D0E746EA06466A
:1024300013F1400F4FEA16461FDD13F1200FDFBFE7
:1024400016430A46002120335B42BED0C3F1200769
:1024500046EA064602FA07F74FEA164646EA070634
:10246000C3F1200722FA03F201FA07F721FA03F178
:102470004FF0000342EA0702A7E746EA020646EAEF
:1024800006464FEA164646EA0106BCBF46EA06463D
:10249000360C4FF000034FF000024FF0000194E7BC
:1024A0002DE9804C9A46934670B491E8380007C8ED
:1024B00031EA400C48BF34EA430C03D5FFF7A3FDD3
:1024C000FFF780FFF0BCBDE8008C2DE9804C9A46F8
:1024D000934670B491E8380007C831EA400C48BF11
:1024E00034EA430C03D5FFF78EFDFFF729FFF0BC5C
:1024F000BDE8008C2DE9804C9A46934670B491E873
:10250000380007C810F0804F08BF13F0804F03D188
:1025100000F01AF8FFF756FFF0BCBDE8008C2DE97B
:10252000804C9A46934670B491E8380007C810F082
:10253000804F08BF13F0804F03D100F005F8FFF77C
:10254000FFFEF0BCBDE8008C20F07F4780EA03006E
:1025500023F07F4C07EB0C03A3F57C5300F0004005
:10256000A3F1FE0392F0000F00F0B38095F0000F8E
:1025700000F077802DE901494FEA11404FEA1446F7
:1025800021EA004800FB06FC24EA064708FB06F6A1
:1025900007FB08F800FB07F718EB06484CEB164C56
:1025A0004FEA124B18EB07484FEA15464CEB174021
:1025B00022EA0B4E0BFB06FC25EA06470EFB06F64D
:1025C00007FB0EFE0BFB07F71EEB064E4CEB164C03
:1025D0004FF000061EEB074E4CEB174B18EB0B08A9
:1025E00040F1000018EB0E0B58EB000840F1000022
:1025F0008F1A4FF000013CBFC943661B14BFB5EBF7
:10260000040C00213CBFC943F61B4FEA17444EEAB5
:102610008E0E27EA04454FEA1C4704FB07622CEAAA
:10262000074C05FB07F70CFB05F604FB0CFC16EB4F
:10263000074642EB174216EB0C4642EB1C421BEBE3
:10264000060658EB0202414146EA9E0601D5BDE866
:102650000189B619524141EB0101A3F10103BDE823
:1026600001894FEA14454FEA114724EA054621EA59
:10267000074C05FB07F406FB07F70CFB06F105FB0F
:102680000CFC11EB074144EB17444FEA124711EBE6
:102690000C4144EB1C4422EA074C05FB07F206FB05
:1026A00007F70CFB06F605FB0CFC16EB074642EBA6
:1026B000174216EB0C4642EB1C456A1854F1000118
:1026C00048BF7047B619524141EB0101A3F1010324
:1026D000704795F0000F37D04FEA11424FEA144788
:1026E00021EA024624EA074C02FB07F106FB07F742
:1026F0000CFB06F402FB0CFC14EB074441EB174106
:102700004FEA154714EB0C4441EB1C4125EA074CFA
:1027100002FB07F506FB07F70CFB06F602FB0CFCB9
:1027200016EB074645EB174516EB0C4645EB1C42EE
:10273000121951F1000148BF7047B619524141EBDF
:102740000101A3F1010370474FEA14454FEA114715
:1027500024EA054621EA074C05FB07F106FB07F7CB
:102760000CFB06F24FF0000605FB0CFC12EB0742D7
:1027700041EB174112EB0C4251EB1C4148BF704733
:10278000921841EB0101A3F10103704700BFFEE77E
:10279000704700B5034603E04FF47A7000F011F87B
:1027A000181EA3F10103F7D100BD10B5044603E0E4
:1027B0004FF47A70FFF7EDFF201EA4F10104F7D16A
:1027C00010BD00EBC001C9004FF0E02251610021B3
:1027D00091610521116100BF4FF0E021096901F409
:1027E00080310029F8D004214FF0E02211617047B8
:1027F00010B52021074800F09AF808B9012010BD53
:102800002021044800F093F8012801D10020F6E7C8
:102810000020F4E7000801402DE9F04102460025C0
:102820000026002000230024002791F803C00CF0AC
:102830000F0591F803C00CF0100CBCF1000F03D091
:1028400091F802C04CEA050591F800C0BCF1000FF8
:1028500031D0146800202BE04FF0010C0CFA00F38B
:10286000B1F800C00CEA03069E4220D183004FF06D
:102870000F0C0CFA03F7BC4305FA03FC4CEA040402
:1028800091F803C0BCF1280F06D14FF0010C0CFAEF
:1028900000FCC2F814C00AE091F803C0BCF1480F74
:1028A00005D14FF0010C0CFA00FCC2F810C0401C1E
:1028B0000828D1D31460B1F800C0BCF1FF0F34DD9B
:1028C000546800202EE000F1080C4FF0010808FACF
:1028D0000CF3B1F800C00CEA03069E4221D183003C
:1028E0004FF00F0C0CFA03F7BC4305FA03FC4CEA5B
:1028F000040491F803C0BCF1280F05D100F1080CC5
:1029000008FA0CF8C2F8148091F803C0BCF1480F23
:1029100007D100F1080C4FF0010808FA0CF8C2F8D2
:102920001080401C0828CED35460BDE8F0810246D8
:10293000002093680B400BB1012000E0002070479D
:10294000416170470161704700BFFEE710B500F0BC
:1029500033FA08A20121084600F0EEFA00F0B4FDB7
:1029600000F02CFC00F088FB00F076F900F01CFD74
:1029700010BD0000496E697469616C697A696E679F
:102980002E2E2E0021B1028842F48062028004E0E3
:1029900002884FF6FF331A400280704770B5024636
:1029A0000024002500230020958A138B1B0445EA90
:1029B000030626F07F4404EA01068E4201D101207D
:1029C00000E0002070BD21B1028842F001020280C7
:1029D00004E002884FF6FE731A400280704721B16E
:1029E000028842F48072028004E002884FF6FF639E
:1029F0001A400280704721B1028842F400720280BE
:102A000004E002884FF6FF531A40028070470CB56D
:102A10000246002000230193009300920B0F0193C4
:102A200021F07F41019B1BB1009B1433009303E015
:102A3000090C009B18330093009B1B680B400BB1E3
:102A4000012000E000200CBD2DE9F04385B00446D4
:102A50000D460026B1460427DFF8CC80A6884FF645
:102A6000C0700640684600F09DFADDF808802F48E7
:102A7000B8FBF0F01FFA80F946EA0906A680208824
:102A80004FF6FE71084020800026294928688842B8
:102A90000CD828684000B8FBF0F087B2042F00DAA9
:102AA00004273E4309F10100208427E0E8884BF623
:102AB000FF71884206D1286800EB4000B8FBF0F0B7
:102AC00087B209E0286800EBC00101EB0010B8FBF9
:102AD000F0F087B247F48047C7F30B0008B947F01E
:102AE000010747F4004006434FF4967009FB00F0DD
:102AF0004FF47A7190FBF1F0401C2084A68320886B
:102B000040F00100208026884FF6F5300640A88866
:102B10006989084306432680A889298908432081BA
:102B200005B0BDE8F083000000127A0040420F00BB
:102B3000A08601000146088AC0B2704712B141F078
:102B4000010102E04FF6FE73194001827047000058
:102B500010B504462146034800F008F8024800F08A
:102B600033F810BD00540040840007000182704714
:102B700010B5044601211148FFF731FF104800F05D
:102B800023F878210D48FFF7F1FF0E4800F01CF8FC
:102B900000210A48FFF7EAFF0A48801C00F014F8F9
:102BA00021460648FFF7E2FF0648801C00F00CF8BB
:102BB00001210248FFF71FFF10BD00000054004034
:102BC000010003008200070070B50446074D04E0D1
:102BD000281EA5F1010500D105E021460448FFF7B4
:102BE000DDFE0128F4D100BF70BD0000A086010009
:102BF0000054004070B505460E4601211348FFF70A
:102C0000EEFE1348FFF7E0FF78211048FFF7AEFF14
:102C10001048FFF7D9FF4020FFF79AFF0D48801CAE
:102C2000FFF7D2FF002409E0295D0848FFF79EFF67
:102C30000848801CFFF7C8FF601C84B2B442F3DB75
:102C400001210248FFF7D7FE70BD0000005400408C
:102C5000010003008200070008B50121042000F0F4
:102C600091F910208DF803000420ADF80000032036
:102C70008DF8020069460448FFF7CEFD04210248A2
:102C8000FFF760FE08BD00000008014000BFFEE73E
:102C90007047000070B5002100230F22C47804B3F0
:102CA000154C246804F4E064C4F5E064210AC1F121
:102CB0000403CA40447804FA03F1847814402143A1
:102CC00009010E4C0678A155047804F01F05012473
:102CD000AC4005786D11AD0005F1E025C5F8004167
:102CE00009E0047804F01F050124AC40044D067887
:102CF000761145F8264070BD0CED00E000E400E0E0
:102D000080E100E002490143024A1160704700007F
:102D10000000FA050CED00E010B5A0B08021684677
:102D2000FDF742FD002409E00021204600F0A5F84F
:102D300080216846FFF75EFF601CC4B2082CF3DBFD
:102D400020B010BD00B585B00121480500F00AF99A
:102D50000121082000F016F91C208DF81300C02076
:102D6000ADF8100003208DF8120004A90F48FFF7FA
:102D700053FD0020ADF804000D4800900020ADF890
:102D800008004BF6FF70ADF806004FF48060ADF818
:102D90000A000001ADF80C0069460648FFF754FE32
:102DA00001210448FFF70FFE05B000BD000C0140F3
:102DB000A08601000054004070B5002406E0002504
:102DC00000E06D1CB5F57A7FFBD3641CB4F57A7F07
:102DD000F5D3FFF7B7FFAE20FFF7CAFED520FFF708
:102DE000C7FE8020FFF7C4FEA820FFF7C1FE3F20EA
:102DF000FFF7BEFED320FFF7BBFE0020FFF7B8FEB3
:102E00004020FFF7B5FEA120FFF7B2FEC820FFF774
:102E1000AFFEDA20FFF7ACFE1220FFF7A9FE8120FB
:102E2000FFF7A6FECF20FFF7A3FED920FFF7A0FEF5
:102E3000F120FFF79DFEDB20FFF79AFE3020FFF721
:102E400097FEA420FFF794FEA620FFF791FE8D20A9
:102E5000FFF78EFE1420FFF78BFEAF20FFF788FEF2
:102E6000FFF75AFF70BD10B50246012000E0504345
:102E70000B1EA1F10101FAD110BD70B505460C463B
:102E800045F0B000FFF774FE102141EA1410FFF77F
:102E90006FFE04F00F00FFF76BFE70BD70B50446C7
:102EA0000D4616466A1ED206110E621E5206100EFE
:102EB000FFF7E3FFA6F120010D4A02EB0110082104
:102EC000FFF798FE6A1ED206110E621E012303EB65
:102ED0004202D0B2FFF7D1FFA6F12001044A02EB73
:102EE000011101F108000821FFF784FE70BD000008
:102EF0006A5200082DE9F04780460E4617461D46E7
:102F0000002415E0281B411E0A20FFF7ACFFB7FB89
:102F1000F0F00A21B0FBF1F201FB120000F13009E0
:102F20003019C1B24A464046FFF7B8FF601CC4B230
:102F3000AC42E7DBBDE8F0872DE9F04107460E46DD
:102F40001546002407E02A5D3019C1B23846FFF764
:102F5000A5FF601CC4B2285D0028F4D1BDE8F08153
:102F60007047000029B1064AD2690243044BDA6176
:102F700004E0034AD2698243014BDA6170470000E2
:102F80000010024029B1064A92690243044B9A613B
:102F900004E0034A92698243014B9A617047000042
:102FA0000010024030B500210022002400232D4DE6
:102FB0006D6805F00C0121B1042905D0082923D141
:102FC00005E0294D056022E0274D05601FE0254DF5
:102FD0006D6805F47012234D6D6805F48034022588
:102FE00005EB92421CB9214D554305600BE01D4D88
:102FF0006D6805F400351DB11C4D5543056002E0B8
:10300000194D5543056002E0174D056000BF00BF34
:10301000144D6D6805F0F0010909154D6B5C0568EC
:10302000DD4045600F4D6D6805F4E061090A104D03
:103030006B5C4568DD4085600A4D6D6805F4605144
:10304000C90A0B4D6B5C4568DD40C560054D6D6878
:1030500005F44041890B074D6B5CC568B5FBF3F582
:10306000056130BD0010024000127A0000093D00E9
:10307000000000201000002008B501210420FFF707
:1030800081FF10208DF80300C020ADF80000032060
:103090008DF8020069460648FFF7BEFB4021044850
:1030A000FFF750FC80210248FFF74CFC08BD0000F0
:1030B0000008014010B50446012C03D14021054809
:1030C000FFF740FC022C03D180210248FFF73AFCB5
:1030D00010BD00000008014010B50446012C03D1CA
:1030E00040210548FFF72CFC022C03D18021024827
:1030F000FFF726FC10BD00000008014070B5034634
:103100000C461546FF21002213E0985C414008263A
:103110000BE001F0800020B1312080EA4100C1B213
:1031200001E04806010E701EC6B2002EF1DC501CF4
:10313000C2B2A242E9DBA94201D0012070BD002049
:10314000FCE7000000B585B001218805FFF70AFF04
:1031500001210820FFF716FF1C208DF813004FF403
:103160004060ADF8100003208DF8120004A910484B
:10317000FFF752FB0020ADF804004BF6FF70ADF8EE
:1031800006000020ADF808004FF48060ADF80A009A
:103190000001ADF80C000748009069460648FFF7AB
:1031A00053FC01210448FFF70EFC05B000BD0000F0
:1031B000000C0140A08601000058004010B5FFF748
:1031C000C1FF1420FFF7E5FAA221302000F0A6F895
:1031D0001420FFF7DEFA10BD2DE9F04788B0054650
:1031E0000E460021242000F099F81420FFF7D1FAB0
:1031F00001214448FFF7F3FB00BF43494148FFF773
:10320000CDFB0028F9D0012289213E48FFF796FC2A
:1032100000BF3D49491C3B48FFF7C0FB0028F8D0E0
:10322000002713E0052F03D100213648FFF7AAFB42
:1032300000BF35493F313348FFF7B0FB0028F8D0D5
:103240003048FFF777FC06A9C8557F1C062FE9DB3D
:1032500001212C48FFF7CFFB01212A48FFF792FB01
:103260009DF81A20022106A8FFF748FF04461CB16A
:10327000012008B0BDE8F0879DF81D2002210DF166
:103280001B00FFF73BFF04460CB10120F1E79DF85E
:1032900019009DF8181040EA01299DF81C009DF8BE
:1032A0001B1040EA012A484601F088FC0022174B17
:1032B000CDE9000101F0D2FC07460022144B01F0D9
:1032C000A3FA0022134BCDE9020101F0E1F9CDE9A7
:1032D000040101F0ABF92860504601F06FFC0022B8
:1032E0000D4BCDE9020101F0B9FC0022084BCDE9FC
:1032F000040101F089FA074601F098F930600020D6
:10330000B7E70000005800400100030000E06540FE
:10331000E0FFEF40008046C00000594070B5044611
:103320000D4600BF4FF400311C48FFF770FB00282A
:10333000F8D101211948FFF752FB00BF184917487F
:10334000FFF72CFB0028F9D0002288211348FFF753
:10335000F5FB00BF13491148FFF720FB0028F9D007
:1033600021460E48FFF702FC00BF0E49891C0B489E
:10337000FFF714FB0028F8D029460848FFF7F6FBB2
:1033800000BF0849891C0548FFF708FB0028F8D052
:1033900001210248FFF72FFB70BD000000580040DC
:1033A000010003008200070008B501210420FFF797
:1033B000E9FD48208DF803002020ADF8000003202F
:1033C0008DF8020069460248FFF726FA08BD0000A2
:1033D000000801402DE9FC47FFF70AFA044600F017
:1033E0000FFC0546012C03D10120FFF775FE02E01A
:1033F0000120FFF75FFE694601A8FFF7EDFE0028F8
:103400004FD1019801F048FE0646022332460D21B5
:103410000120FFF76FFD009801F03EFE06460223F3
:1034200032460A211846FFF765FD0123224607218F
:103430000320FFF75FFD019801F02EFE814601F0A9
:10344000A6FB064632460B4617A1284600F088FB2D
:10345000009801F021FE814601F099FB06463246B4
:103460000B4614A1284600F07BFB204601F08FFBA1
:10347000064632460B4612A1284600F071FB28464C
:1034800000F004FC8046404600F06EFA284600F04A
:10349000C3FB404600F004FC40F2DC50FFF779F932
:1034A00000BFBDE8FC87000074656D7065726174D3
:1034B0007572650068756D69646974790000000053
:1034C000736D6F6B6500000000B587B00121880344
:1034D000FFF758FD01210420FFF754FD18208DF857
:1034E0001B004FF40070ADF8180003208DF81A008F
:1034F00006A92148FFF790F948208DF81B004FF4EA
:103500008060ADF8180003208DF81A0006A91A484B
:10351000FFF782F94FF4165002900020ADF8140026
:103520000C20ADF812000020ADF81000ADF80E0030
:10353000ADF80C0002A9114800F090F9012240F208
:1035400025510E4800F064F94FF4A060FFF7DAFB54
:1035500025208DF8040001208DF807008DF8050066
:103560008DF8060001A8FFF795FB0121034800F044
:103570000CF907B000BD0000000801400038014010
:1035800010B500F001F810BD0CB5002001900090BE
:103590003348006840F480303149086000BF30484B
:1035A000006800F4003000900198401C01900098E1
:1035B00018B90198B0F5A06FF1D12948006800F45E
:1035C000003010B10120009001E000200090009830
:1035D000012843D12348006840F0100021490860C9
:1035E0000846006820F0030008600846006840F0C4
:1035F000020008601A484068194948600846406857
:1036000048600846406840F480604860084640686A
:1036100020F47C1048600846406840F4E810486098
:103620000846006840F08070086000BF0C480068E1
:1036300000F000700028F9D00948406820F003002D
:10364000074948600846406840F00200486000BFF3
:103650000348406800F00C000828F9D10CBD0000B8
:1036600000100240002002407047000010B51348CF
:10367000006840F0010011490860084640681049A0
:1036800008400E494860084600680E4908400B494A
:1036900008600846006820F48020086008464068FA
:1036A00020F4FE0048604FF41F008860FFF768FFB9
:1036B0004FF000600449086010BD00000010024097
:1036C0000000FFF8FFFFF6FE08ED00E010B540F245
:1036D0002551214800F072F801283CD11E4800F025
:1036E00029F9C4B21D48007858B9402C2DD11C4886
:1036F000007850BB01201949087000201949087052
:1037000023E01648007801280FD10D2C03D10220A8
:103710001249087019E014481249097844541148B4
:103720000078401C0F4908700FE00C480078022810
:103730000BD10A2C09D10020084908700A49094A0E
:103740001278885401200649087040F22551024839
:1037500000F00CF800BF10BD003801402900002027
:10376000280000202A0000202C00002010B5002294
:10377000002340F66A14A14200D100BF0A120124BE
:103780009440A3B2DC43048010BD21B1828942F48D
:103790000052828104E082894DF6FF731A408281D3
:1037A000704702460020B1F5007F00D100BF1388AA
:1037B0000B400BB1012000E00020704770B50246BD
:1037C000002400230025002040F66A16B14200D1F3
:1037D00000BFC1F3421501F01F03012606FA03F3EF
:1037E000012D02D19689334006E0022D02D1168ABE
:1037F000334001E0968A33400C12012606FA04F4A5
:103800001688344013B10CB1012000E0002070BDD7
:10381000F0B50346002400260025002040F66A1774
:10382000B94200D100BF1846C1F3421401F01F068F
:10383000012707FA06F5012C01D10C3004E0022C17
:1038400001D1103000E014301AB107682F4307602F
:1038500002E00768AF430760F0BD00002DE9F047C4
:1038600086B005460E460024A24600BFA1460027AA
:10387000B08900B100BF2F462C8A4CF6FF7004407F
:10388000F08804432C82AC894EF6F3100440B088D3
:1038900031890843718908430443AC81AC8A4FF6EF
:1038A000FF400440B0890443AC8201A8FFF77AFBD3
:1038B0001F48874202D1DDF810A001E0DDF80CA01E
:1038C000A88900F4004040B10AEBCA0000EB0A10DE
:1038D00031684900B0FBF1F807E00AEBCA0000EBE1
:1038E0000A1031688900B0FBF1F86420B8FBF0F0F1
:1038F00004012009642101FB1089A88900F400401B
:1039000040B1322000EBC900B0FBF1F000F007003D
:10391000044308E0322000EB09106421B0FBF1F011
:1039200000F00F0004432C8106B0BDE8F0870000D2
:103930000038014001468888C0F308007047000045
:1039400010B504462146054800F00AF800BF802162
:103950000248FFF726FF0028F9D010BD00380140CB
:10396000C1F308028280704770B50446002504E068
:10397000605DFFF7E5FF681CC5B2605D0028F7D108
:1039800070BD00BFFEE7490050EAC12018BF042007
:103990004A0D18BF40F0010040F2FF72B2EB515FD8
:1039A00008BF40F00200012808BF0520704740F220
:1039B000013200204FF0E04101F00BBC024A002030
:1039C000110701F006BC000001FDFFFF10B5044621
:1039D000D1E9000100F002F8206010BDF8B50446FE
:1039E0000D466A4600F0E0F900987E30009000280D
:1039F0001EDC002213462046294601F05DF817D050
:103A0000002140F608004FF00000064620462946F7
:103A100000F00CFE044640F6080006EA00014FF0F4
:103A2000000034F0004004BF0220FDF7CDFF29E084
:103A30000098FF2828DB002108464FF0000000F422
:103A40004006002213462046294601F005FA8CBFA5
:103A5000002501250220FDF7B7FF4FF0FF4446B1D6
:103A6000002D0CBF4FF400004FF48000B04218BF8F
:103A7000084C042108464FF00000002D04BF84F0DC
:103A80000040F8BD2046F8BD20462946BDE8F84074
:103A900000F0CCBDFFFF7F7F10B504460A46D4E995
:103AA0000003194600F0AEF9C4E9000110BD30383A
:103AB0000A2801D2012070470020704770B50446E3
:103AC0000E46002506B10CB9002070BDA5680DB9E1
:103AD000A66008E000E02D6828680028FBD1314688
:103AE000284600F061FD0120EFE72DE9F047074689
:103AF0000D4614461E46DDF820904FF00008C246E1
:103B00000FB105B114B90020BDE8F087B9F1000F7D
:103B100007D0284600F0EAF88046E06840F4007AD2
:103B20000CE03146284600F0C5F88046B8F1000F99
:103B300001D10020E8E7E06820F4007AA08900F4D1
:103B4000007020B9206A10B1206A71688847C4F8F3
:103B50002080C4F80CA021463846FFF7AFFFD3E71A
:103B60002DE9F84306460F4614461D4620462946D1
:103B700000F014F880460020074B4246394600907A
:103B80003046FFF7B2FF10B14046BDE8F88340462B
:103B900000F042F80020F8E71C00002070B5054650
:103BA0000E46134800F064F80446F4B10820E060C3
:103BB000C4E906560F4A104B2846314601F04CF92D
:103BC00003D86FF0004060610FE000220B4B2846E5
:103BD000314601F007F803D84FF00040606104E07F
:103BE0002846314600F0A4FF6061204670BD000009
:103BF0001C0000200000C0FFFFFFDF410000E0C10B
:103C000010B5044800F034F804460CB14020E060E0
:103C1000204610BD1C00002070B50446002522E09F
:103C20002568A08900F4807020B9A06810B1A06850
:103C3000FFF7F2FFA08900F4807028B9206918B15D
:103C40000A4A206951688847A08900F4007028B9A1
:103C5000206A18B1054A206A5168884703484168BC
:103C6000204688472C46002CDAD170BD1C0000206D
:103C700070B5044628202168884705461DB12821D3
:103C80002846FCF791FD284670BD000010B504469B
:103C9000024A0121204600F05DF910BD1C00002001
:103CA00010B50446024841682046884710BD000010
:103CB0001C0000202DE9F04104460D460026002797
:103CC00014B90020BDE8F0812046FCF7D7FC461C63
:103CD00030462968884707460FB90020F2E7324688
:103CE00021463846FCF7E9FC3846EBE770472DE9FA
:103CF000F04104460D46002600270CB1206810B99B
:103D00000020BDE8F081606828B1D4E90110884244
:103D100001D30020F5E7B5F1004F01D30020F0E713
:103D2000A068401C05446068A84203D3A1682068CD
:103D30000844E6E7206908B10020E2E7B5F1804FCA
:103D400007D3B5F1004F02D26FF0004702E0002028
:103D5000D7E76F00206A60B13946226A2068904731
:103D60000646E6B9E1692068884700206060206067
:103D7000C7E73846A1698847064636B9E169206831
:103D80008847002060602060BBE72EB1A068421C1D
:103D900030462168FCF791FCE1692068884767603C
:103DA0002660A0683044ACE710B5144600222260BB
:103DB000114A21F000439342A8BF10BD53EA00020C
:103DC00008BF10BDB3F5801FA8BF226807DA3622EE
:103DD00001F0FFF96FF0350221F000432260DFF8B7
:103DE0001CC06FF31E510CEB23531A4441F0FF51DA
:103DF00041F00051226010BD0000F07F02FCFFFF87
:103E00002E2070472DE9F04106460C4640F2FF7522
:103E1000174635EA14502BD000221346304600F0E6
:103E20004BFE25D03A463046214601F0D2F90646EF
:103E30000C4635EA145010D000221346304600F0EC
:103E40003BFE15D10220FDF7BFFDFFF7B7FD0A4687
:103E5000214662F31E01BDE8F0810220FDF7B4FDAA
:103E6000FFF7A5FD0A46214662F31E01BDE8F08179
:103E700030462146BDE8F081FEF768FD0120FEF7DF
:103E800094FCFEF749FF1FA201210846FFF754F8F2
:103E900020A201210220FFF74FF821A20C210220CD
:103EA000FFF74AF81FA201210420FFF745F81FA2DF
:103EB00001210320FFF740F823E0FFF78BFA1D48AC
:103EC000007801280ED11CA11E48FCF795FC00B912
:103ED00001241DA11B48FCF78FFC00B9022400201F
:103EE00014490870012C04D113A207210420FFF704
:103EF00023F80CB1022C04D113A207210420FFF7F0
:103F00001BF8DAE754656D70657261747572653A15
:103F10000000000048756D69646974793A0000001A
:103F200025000000436C6F75643A0000536D6F6BA1
:103F3000653A000028000020436F6E6E6563746967
:103F40006F6E00002C000020446973636F6E6E6515
:103F500063740000F0B589B007460E46144600258C
:103F600024216846FCF720FC4FF4807021688847C4
:103F700000904FF480700190059694E8070006AB1E
:103F800007C3009800B932E06946384600F08AFA63
:103F900000B92CE0684600F00AFBA06848B1029B1B
:103FA000591C0098A2689047054600200090DDB992
:103FB0001DE0029A501C21688847054605B916E0A5
:103FC000DDE90130401C834201D2019801E00298F2
:103FD000401C024628460099FCF76FFB002002991E
:103FE0006854009861688847284609B0F0BD009879
:103FF00010B100986168884715B128466168884704
:104000000020F2E72DE9F04107460C460025A846BE
:10401000BE6814B90020BDE8F08101212046FFF7F9
:1040200066FE05460DB90020F5E75B202870A06804
:10403000401CA060E068401CE06028E0214630465B
:1040400000F030FA08B90020E5E7204600F0AFFAAA
:104050003068D8B1606908B1022000E001208046D4
:1040600008F101012046FFF742FE05460DB9002088
:10407000D1E72C2005F8010B606910B1202005F86C
:10408000010B00202870A0684044A0603668002E14
:10409000D4D102212046FFF72AFE05460DB90020A3
:1040A000B9E75D2005F8010B00202870E068401E8C
:1040B000E0600120AFE700002DE9F04F8BB08246B1
:1040C0000D464FF00009DAE9067800260024FFF7D4
:1040D00097FE83461DB900200BB0BDE8F08F00228B
:1040E00013463846414600F0B9FD00221346CDE99B
:1040F000000100F0E1FC05D025A104A8FCF730F98F
:1041000006461BE03A46434623A104A8FCF728F9DB
:10411000064602AA22A104A8FCF76EFA012806D1DD
:104120003A464346DDE9020100F0C6FC06D03A46B5
:1041300043461CA104A8FCF713F90646002E01DB38
:10414000192E01DD0020C7E7711C2846FFF7CFFDBF
:104150008146B9F1000F01D10020BDE700240DE038
:1041600004A8005D584503D12E2009F8040004E09E
:1041700004A8005D09F8040000BF641CB442EFD33A
:10418000002009F80400A8683044A8600120A3E7D3
:104190006E756C6C0000000025312E313567000013
:1041A000256C670025312E31376700002DE9F04777
:1041B00081460C4600250026D9F8087014B9002065
:1041C000BDE8F087606908B1022000E001200646E2
:1041D000711C2046FFF78BFD05460DB90020EFE767
:1041E0007B2005F8010BE068401CE060606910B1BD
:1041F0000A2005F8010BA0683044A06069E06069FE
:10420000B8B12046E168FFF772FD05460DB9002000
:10421000D6E74FF0000804E0092005F8010B08F18B
:104220000108E0684045F7D8D4E902010844A060DD
:1042300000BF2146386A00F07BF808B90020BFE7CC
:10424000204600F0B4F9606908B1022000E00120C6
:10425000064631462046FFF74AFD05460DB90020C7
:10426000AEE73A2005F8010B606910B1092005F8A6
:10427000010BA0683044A0602146384600F012F9D6
:1042800008B900209CE7204600F091F9606908B168
:10429000012000E00020396809B1012100E000217F
:1042A0004618711C2046FFF722FD05460DB9002077
:1042B00086E7386810B12C2005F8010B606910B151
:1042C0000A2005F8010B00202870A0683044A06087
:1042D0003F68002F93D1606910B1E068401C00E096
:1042E000022001462046FFF702FD05460DB90020D9
:1042F00066E7606950B1002003E0092105F8011B61
:10430000401CE168491E8142F7D800BF7D2005F8B6
:10431000010B00202870E068401EE06001204FE79C
:1043200070B504460D462946206900F001F870BDBD
:104330002DE9F04707468A46002400260025A046BE
:10434000A146BAF1000F02D10020BDE8F0876FB995
:1043500003215046FFF7CBFC06460EB90020F4E7D8
:104360004DA13046FCF766F90120EEE73C4622E01D
:1043700020780C2811D006DC08280DD009280FD091
:104380000A2810D10AE00D2809D0222802D05C2882
:1043900009D100E000BF00BF00BF00BF00BF00BFE9
:1043A00009F1010905E02078202801DA09F1050961
:1043B00000BF00BF641C20780028D9D1E01B00EBAF
:1043C000090808F103015046FFF791FC06460EB9B3
:1043D0000020BAE7B9F1000F0FD122203070424619
:1043E0003946701CFCF769F9222108F101003154AB
:1043F0000021401C31540120A7E722203070751C99
:104400003C463DE020781F2808DD2078222805D092
:1044100020785C2802D0207828702FE05C2005F8F6
:10442000010B20780C2815D006DC08280FD00928AD
:1044300019D00A281AD110E00D2811D0222803D053
:104440005C2813D1287018E02220287015E0622023
:10445000287012E0662028700FE06E2028700CE0B3
:104460007220287009E07420287006E022780BA1E1
:104470002846FBF775FF2D1D00BF00BF641C6D1C97
:1044800020780028BED1222108F1010031540021FA
:10449000401C3154012058E7222200007525303499
:1044A000780000002DE9F04104460E46002504B1D5
:1044B00016B90020BDE8F081207B102857D008DC19
:1044C00001281BD0022827D0042809D008285DD154
:1044D00030E0202850D0402853D0802856D12EE0FC
:1044E00005213046FFF703FC05460DB90020E1E742
:1044F00027A12846FCF79EF80120DBE7062130467D
:10450000FFF7F5FB05460DB90020D3E722A12846A9
:10451000FCF790F80120CDE705213046FFF7E7FBD7
:1045200005460DB90020C5E71DA12846FCF782F815
:104530000120BFE731462046FFF7BEFDBAE700275E
:10454000206908B90020B5E72069FCF797F8471CF7
:1045500039463046FFF7CBFB05460DB90020A9E7E9
:104560003A4628462169FCF7A8F80120A2E731461F
:104570002046FFF7D5FE9DE731462046FFF742FD76
:1045800098E731462046FFF711FE93E7002091E7B8
:104590006E756C6C0000000066616C736500000055
:1045A000747275650000000001604860704770B566
:1045B000044600250CB1206800B970BDA1682068D0
:1045C00045182846FCF75AF8A1680844A06000BFC7
:1045D000F3E7000010B500290AD00878002807D0BA
:1045E00005487844FCF708F9002801D0002010BDE8
:1045F0000248784410BD0000361900002E19000052
:1046000010B500290AD00878002807D0054878445A
:10461000FCF7F2F8002801D0002010BD02487844D1
:1046200010BD00001A1A0000121A000021F000420A
:10463000A2F16052B2F5801F01F0004328BFD2F111
:104640007F6C0BD95FEA001C43EAC20242EB507058
:1046500018BF704728BF20F001007047B2F5801FD7
:10466000BCBF184670474FEA410C1CF5001F02D230
:10467000084600F072BD70B500F09AFB000000899A
:10468000FFF7F6BF4FF00040A0F580007047000034
:1046900010B591EA030F48BF83F0004300F11A847C
:1046A000841A71EB030C05D2121943EB0C03001BA7
:1046B00061EB0C01DFF824E14FEA1154A4EB135C29
:1046C0001EEA430F18BF9EEA445F73D023EA0E032D
:1046D000DCF1200E21EA045143F4801332D322FA94
:1046E0000CFE10EB0E0023FA0CFE41EB0E01CCF198
:1046F000200E03FA0EFE10EB0E0051F10001B1F591
:10470000801FCCF1200E32D201EB045112FA0EF2CE
:10471000BDE8104058BF7047401C38BF5FEA4202F6
:1047200018BF7047002814BF20F0010041F10001BC
:104730004FEA410313F5001F38BF7047A1F1C04194
:1047400000F084BB012A43EB0302ACF1200CDCF146
:104750001F0E32BF4FF0000E23FA0CF310EB0300D4
:1047600041EB0451B4EB115FD0D0A1EB045101F542
:10477000801149085FEA300001EB04510ED350F17B
:10478000000038BF12FA0EFE08D1BDE81040C9E79C
:10479000401C38BF5FEA4202CAD1C3E7BDE81040FF
:1047A0004FEA410313F5001F38BF7047A1F1C04124
:1047B00000F04CBB9EEA445F08D011EA5E0FBDE8F2
:1047C000104004BF01F0004100207047BDE81040D8
:1047D00070B500F0EDFA00BF64FBBE3E0000E0FFE4
:1047E00002494FF0000000F0C2BC00BF0000F87F9B
:1047F000491058BFC1F140415B1058BFC3F140435D
:104800008B42EFF3008070472DE9C04130B4DFF8F0
:10481000A0C23CEA111418BF3CEA131400F0EC806B
:1048200081EA03051CEA111444EAD57418BF1CEA96
:10483000131500F0C780A4EB05044FF0004545EACE
:10484000C12145EAC32341EA505143EA525304F1DE
:104850007F74994204F500344FEAC0204FEAC22227
:1048600008BF904200F09C804FEA13650FF240169B
:10487000765D4FEA134506FB05F7C7F1807706FB27
:1048800007F74FEAD737A7FB03687642C8F58038A9
:10489000A7FB06CE38BFA8F1010807FB08E64FF0DA
:1048A000000EA6FB028CE6FB03CEDCF1000CCEF181
:1048B000004E38BFAEF1010EA6FB0C584FF00007BA
:1048C0004FF00005E6FB0E87A1FB08C6A0FB07CE54
:1048D00016EB0E0645F10005E1FB076515F1E04E0C
:1048E0007EBFA4F580345FEA46066D4116F180076D
:1048F00045F100054FEA17274FEA066647EA0567C4
:10490000A6F1DE46B6F1805F4FEA15251FD938467D
:1049100024F0010C05EBC471BCF1FE6F01EB0C112E
:1049200002D8F0BCBDE8008124425CBF01F5801EC6
:104930009EEAC47F02D4F0BCBDE80081244238D492
:10494000F0BCA1F1C041BDE8004100F07FBA4FEAE0
:10495000D22242EA43524FEAD323A7FB02864FEA10
:10496000D02040EA415007FB03661EEA0E0F4FEAD3
:10497000D12105FB026658BFA6EB0056B6EB0056E8
:104980004FEA520E4EEAC37E18EB0E0E56EB530E54
:10499000BDD518EB02085E417F1C55F10005B6E756
:1049A0004FF480154FF000074FF000064FF000085D
:1049B000ADE7F0BC4FF0000001F1C04101F0004153
:1049C000BDE8008111EA0C1F0CEA131500D00CE0C1
:1049D00013EA0C1F00F025804FF00000F0BC81EAC4
:1049E000030101F00041BDE80081F0BCBDE80041D9
:1049F00081EA030100F02ABAF0BCBDE8004170B5BD
:104A000000F0D6F9097EFC3E00F007B881EA030108
:104A10004FF0000001F00041704781EA030100F00F
:104A200015BAF0BCBDE800414FF0000021497047C5
:104A3000FFFDFBF9F7F5F4F2F0EEEDEBE9E8E6E463
:104A4000E3E1E0DEDDDBDAD8D7D5D4D3D1D0CFCDEA
:104A5000CCCBCAC8C7C6C5C4C2C1C0BFBEBDBCBB23
:104A6000BAB9B8B7B6B5B4B3B2B1B0AFAEADACAB1E
:104A7000AAA9A8A8A7A6A5A4A3A3A2A1A09F9F9EF8
:104A80009D9C9C9B9A9999989797969595949393AA
:104A9000929191908F8F8E8E8D8C8C8B8B8A898941
:104AA00088888787868585848483838282818180C4
:104AB0000000FF070000F87F51EA030C17D41CF533
:104AC000801F58BFBCF5801F00F10680994218BFB7
:104AD000704708BF9042704707D711F5801F58BF35
:104AE00013F5801F19D499427047894270471CF50D
:104AF000801F08D5BCF5801FF7D58B4218BF7047C3
:104B000008BF824270474FF4001C1CEB410F38BFB6
:104B10001CEB430F01D28B42704770B500F048F98F
:104B2000922449004FF000514FF08053FFF760BED0
:104B30004FEA41034FEA5353A3F58063D3F11E03B9
:104B4000C8BFD3F1210C0CDD4FF0004242EAC12274
:104B500042EA505232FA03FC8CEAE17CACEBE170A1
:104B60007047102BC4BF0020704703F5787CBCF160
:104B7000FF3F04D06FF0004282EA2100704770B519
:104B800000F016F94992248000207047F2E710F0F7
:104B9000004248BF4042B0FA80F310FA03F10AD055
:104BA000C3F11D0303F580634FEA415002EB03524A
:104BB00002EBD12170474FF000007047B0FA80F34C
:104BC00010FA03F10AD0C3F11D0303F580634FEA25
:104BD00041504FEA035202EBD12170474FF00000E1
:104BE0007047000051EA030C17D41CF5801F58BF12
:104BF000BCF5801F00F10680994218BF704708BFBE
:104C00009042704707D711F5801F58BF13F5801FDA
:104C100019D499427047894270471CF5801F08D506
:104C2000BCF5801FF7D58B4218BF704708BF824282
:104C300070474FF4001C1CEB410F38BF1CEB430FB7
:104C400001D28B42704770B500F0B2F8922449004F
:104C50004FF000514FF08053FFF7CABDDFF848C155
:104C600070B51CEA111E1EBF1CEA13159EEA0C0F3C
:104C700095EA0C0F00F06F8081EA030423EA4C13DD
:104C80004EEAD47E21EA4C1141F4801143F48013A2
:104C9000AE44A1FB024CA0FB0365AEF17F7E36194A
:104CA00055EB0C05A1FB034C4CF10003A0FB021CCF
:104CB00016EB0C06654153F10003094218BF46F09C
:104CC000010613F4007F0BD14FEA03314FEA0530A0
:104CD000340341EA155140EA16506FF003020AE02E
:104CE0004FEAC3214FEAC520F40241EA555140EA98
:104CF00056506FF0020202EB2E4201EB025585EA9C
:104D0000CE710AD05FEA440C18BF24F0004450F181
:104D1000000041F1000120EAD47040F2FE7C6245BF
:104D200000D270BDA84214BF4FF080444FF0404401
:104D3000002E08BF0024BEF1806FA8BFA1F1C041C2
:104D4000BDE8704080F282804FF0000001F1C04168
:104D500001F0004170479EEA0C0F0CEA131518BFD2
:104D600095EA0C0F06D04FF0000081EA030E0EF01A
:104D7000004170BD00F01CF88900013E00F007B84A
:104D800000F009B84FEA430C5FEA5C5C08D081EAA6
:104D9000030100F05BB84FEA410C5FEA5C5CF6D1BE
:104DA0004FF00000014970470000FF070000F87F46
:104DB0000EF1020E2EF0030E5EF8046B364205D49F
:104DC000012A43EB030515F5001F12D8012841EB1A
:104DD000010C1CF5001F0CD80ED14FEAD17C15F543
:104DE000001F0CEB4C0C0CF1020C08BF4CEBD37CFD
:104DF00004E04FF0080C01E04FEAD37C0CEB4C05CB
:104E000026FA05F606F00706B6F1040C06D20EEBFC
:104E1000860CBDE870404CF0010C6047DFE80CF0F8
:104E2000090B02024FF000414FF00000A1F50021F4
:104E300070BD19461046012851EB010418BFD4F586
:104E4000001484BF002001F0004170BD0808A0F5E7
:104E500000114FEA3101704753EA010C17D41CF5D9
:104E6000801F58BFBCF5801F00F106808B4218BF21
:104E7000704708BF8242704707D713F5801F58BF9D
:104E800011F5801F19D48B4270479B4270471CF567
:104E9000801F08D5BCF5801FF7D5994218BF704711
:104EA00008BF904270474FF4001C1CEB430F38BF03
:104EB0001CEB410F01D2994270470FB40CBC03BCEC
:104EC000FFF7C1BE10B591EA030F48BF83F000435E
:104ED0003FF5E6AB841A71EB030C07D212198CF084
:104EE000004C43EB0C03001B61EB0C01DFF8A4E169
:104EF0004FEA1154A4EB135C1EEA430F18BF9EEA5D
:104F0000445F00F0B08023EA6E03524221EA04516C
:104F1000C3EB6E0338BF5B1EDCF1200E25D322FAF3
:104F20000CFE10EB0E0043FA0CFE41EB0E01CCF12F
:104F3000200E03FA0EFE10EB0E0051F10001CCF131
:104F4000200E29D412FA0EF201EB0451BDE81040F4
:104F500058BF7047401C1CBFB2F1004F704700287B
:104F60000CBF491C20F00100704712EB020E43EB0E
:104F7000030218BF4FF0010E4EEA4202ACF1200CC2
:104F8000DCF11E0E54D943FA0CFE10EB0E0051F169
:104F9000FF31CCF11E0ED5D50EF1010E12FA0EFE28
:104FA000404141EB010101EB445C5FEA5C5C10D9DC
:104FB00010EBDE7001EB045138BFBEF1004FBDE8CD
:104FC000104018BF704700280CBF491C20F001009A
:104FD000704730D24FEAD42C11F5001124F400644C
:104FE0001BD0B1FA81F20B3AA41AA41ED2F120030D
:104FF000914030FA03F31943904001EBCC71002C3F
:1050000001EB0451BDE81040A8BF704701F1C04159
:105010004FF0000001F000417047B0FA80F310FA41
:1050200003F100D110BDE41A173C4805C90AE4E7B2
:1050300001EB045110BD491001EB0451BDE81040D3
:105040004FEA300002E04FF0000170474A0008BF0D
:105050000042F8D0B2F5001F28BF704701F00041B0
:105060004FF0000070479EEA445F07D011EA5E0FE0
:10507000BDE8104004BF002100207047BDE810408B
:1050800070B5FFF795FE00BF40DFF63E83F00041AC
:10509000104670470000E0FF41000B0ED3F19E0266
:1050A00008D950F400034FEA032323FA02F048BF63
:1050B0004042704710B500F00AF800BF49922480C2
:1050C000002070476FF0004282EA200070470EF126
:1050D000020E2EF0030E5EF8044B244204D44FEA75
:1050E0004102B2F17F4F11D84FEA4003B3F17F4F35
:1050F0000CD80ED14FEAD07CB2F17F4F0CEB4C0CA8
:105100000CF1020C08BF4CEBD17C04E04FF0080C12
:1051100001E04FEAD17C0CEB4C0324FA03F404F0D9
:105120000704B4F1040C06D20EEB840CBDE8104069
:105130004CF0010C6047DFE80CF0070802024FF06A
:105140000040A0F5800010BD0846420018BFD2F113
:10515000807288BF00F0004010BDFF2141EAD050AE
:10516000C00570474FF000007047FBF715BD0CF00D
:105170000F03092B08BF082000F05F800A2B0BD01B
:10518000082B18BF704708BF1CF0400F0AD04FF023
:1051900000004FF0000170471CF0400F18BF4FF0A7
:1051A000004070471CF0100F08D020F0704300F052
:1051B0007F4242EAD3014FEA4370704700F06040FB
:1051C00021F07F4242EA000201F07F4040EA727023
:1051D00070474FF0FF0C4CF4E06C1CEA11531CBFFD
:1051E0009CEA030C9445C2BFDA4201EB02517047BE
:1051F000002B0DD0BCF1000F0FD0002A01F00041B0
:10520000A4BF41F0E04141F07F614FF000007047E2
:1052100001F000414FF00000704750EA01334FF0B9
:105220009B0C18BF4CF0806C7FF4DAAA7047FBF738
:105230002DBFFCF7CFBBFCF75DBD1CF4801F11D068
:105240001CF4E02F03D06FEACC31490070474FF0D7
:105250004050EFF3008222F0704242EA000282F3F3
:10526000008870474FF00000704700000000000009
:1052700000000000000000000000000000F8000036
:105280000000000000333000000000100C06100C7D
:105290000600000000000000000040C07840C07818
:1052A0004000043F04043F040400007088FC083000
:1052B0000000001820FF211E0000F008F000E01898
:1052C000000000211C031E211E0000F00888700051
:1052D00000001E2123241927211010160E000000A3
:1052E00000000000000000000000000000E01804C2
:1052F0000200000000071820400000020418E0002F
:1053000000000040201807000000404080F080406E
:1053100040000202010F01020200000000F0000044
:1053200000000101011F0101010000000000000058
:10533000000080B0700000000000000000000000CD
:105340000000000101010101010100000000000056
:10535000000000303000000000000000000080600D
:105360001804006018060100000000E01008081092
:10537000E000000F102020100F00001010F80000B7
:1053800000000020203F202000000070080808884E
:10539000700000302824222130000030088888481E
:1053A00030000018202020110E000000C02010F84E
:1053B000000000070424243F240000F8088888081F
:1053C00008000019212020110E0000E01088881824
:1053D0000000000F112020110E0000380808C83806
:1053E00008000000003F00000000007088080888E6
:1053F0007000001C222121221C0000E0100808106F
:10540000E0000000312222110F00000000C0C000A7
:1054100000000000003030000000000000800000AC
:1054200000000000806000000000000080402010AC
:1054300008000001020408102000404040404040A5
:105440004000040404040404040000081020408008
:10545000000000201008040201000070480808083D
:10546000F0000000003036010000C030C828E8100D
:10547000E0000718272423140B000000C038E000C8
:105480000000203C23020227382008F88888887012
:105490000000203F202020110E00C030080808081E
:1054A0003800071820202010080008F80808081005
:1054B000E000203F202020100F0008F88888E8082E
:1054C0001000203F20202320180008F88888E808D2
:1054D0001000203F200003000000C03008080838FA
:1054E000000007182020221E020008F8080000080B
:1054F000F808203F210101213F20000808F8080892
:1055000000000020203F2020000000000808F808CC
:105510000800C08080807F00000008F888C028183C
:105520000800203F20012638200008F8080000006D
:105530000000203F20202020300008F8F800F8F874
:105540000800203F003F003F200008F830C000085E
:10555000F808203F200007183F00E0100808081056
:10556000E0000F10202020100F0008F8080808089D
:10557000F000203F210101010000E01008080810A0
:10558000E0000F18242438504F0008F888888888D5
:105590007000203F2000030C3020007088080808AD
:1055A00038000038202121221C00180808F80808BB
:1055B00018000000203F2000000008F80800000844
:1055C000F808001F202020201F000878880000C84D
:1055D0003808000007380E010000F80800F800083D
:1055E000F800033C0700073C030008186880806847
:1055F000180820302C03032C30200838C800C83885
:1056000008000000203F2000000010080808C838EB
:1056100008002038262120201800000000FE020289
:1056200002000000007F40404000000C30C000003D
:105630000000000000010638C00000020202FE0067
:105640000000004040407F00000000000402020211
:105650000400000000000000000000000000000046
:105660000000808080808080808000020204000032
:10567000000000000000000000000000808080802A
:1056800000000019242222223F2008F80080800018
:105690000000003F112020110E00000000808080DB
:1056A0000000000E112020201100000000808088E2
:1056B000F800000E112020103F2000008080808024
:1056C0000000001F222222221300008080F0888820
:1056D00088180020203F202000000000808080806B
:1056E0008000006B94949493600008F800808080A0
:1056F0000000203F210000203F20008098980000FB
:1057000000000020203F202000000000008098982A
:10571000000000C08080807F000008F800008080CA
:105720008000203F24022D302000000808F80000EF
:1057300000000020203F20200000808080808080AA
:105740008000203F20003F20003F8080008080803C
:105750000000203F210000203F200000808080804A
:105760000000001F202020201F008080008080007B
:10577000000080FFA12020110E000000008080802A
:105780008000000E112020A0FF808080800080809B
:10579000800020203F2120000100000080808080C8
:1057A00080000033242424241900008080E08080BD
:1057B00000000000001F202000008080000000800A
:1057C0008000001F202020103F208080800000806B
:1057D000808000010E30080601008080008000807B
:1057E00080800F300C030C300F0000808000808020
:1057F00080000020312E0E3120008080800000804B
:10580000808080818E7018060100008080808080FA
:1058100080000021302C2221300000000000807C1C
:10582000020200000000003F404000000000FF00B6
:10583000000000000000FF0000000002027C800069
:1058400000000040403F000000000006010102028D
:1058500004040000000000000000104010809100CF
:1058600057FF1880116100022004000000000000B2
:105870000000000000000000000020183FE02002AF
:10588000200120023FFC000000000000000000009A
:105890000000000000000000000010101010507FF9
:1058A0005010101010101010100000000000000028
:1058B000000000000000000000000101010101FFE4
:1058C00001010101010101010100000000000000CF
:1058D0000000000000000000000000404042424282
:1058E00042FF4242424240400000000000000000EF
:1058F0000000000000000000000080808040402088
:10590000201F202040408080800000000000000018
:1059100000000000000000000000101010D0FF90F8
:1059200010101010F888888808000000000000009F
:10593000000000000000000000000000000FFF80D9
:1059400080808080FF010101010000000000000054
:10595000000000000000000000000000000000F84F
:1059600008080808F800000000000000000000001F
:10597000000000000000000000000010204080FF38
:1059800001020408FF000000000000000000000009
:105990000000000000000000000010101010FF10B8
:1059A00010101010FF0000000000000000000000B8
:1059B0000000000000000000000000000000FF00E8
:1059C00000000000FF0000000000000000000000D8
:1059D0000000000000000000000000101010FF1088
:1059E00010101010FF101010100000000000000038
:1059F0000000000000000000000000000000FF00A8
:105A000000000000FF000000000000000000000097
:105A10000000000000000000000000404040404046
:105A2000FF404040404040000000000000000000F7
:105A30000000000000000000000000000000000066
:105A4000FF00000000000000000000000000000057
:105A5000000000000000000000000000000000FF47
:105A600049494949FF000000000000000000000013
:105A7000000000000000000000000000000000FF27
:105A800009090909FF0000000000000000000000F3
:105A9000000000000000000000000000000000FE08
:105AA000020202FE000000000000000000000000F2
:105AB000000000000000000000000000000000FFE7
:105AC000000000FF000000000000000000000000D7
:105AD000000000000000000000000000101010FF97
